:020000040800F2
:10000000306A01205904000851540008D146000804
:1000100049540008D91A0008A9620008000000002D
:10002000000000000000000000000000B1560008C1
:10003000E11A00080000000059540008B9560008F1
:1000400073040008730400087304000873040008B4
:1000500073040008730400087304000873040008A4
:100060007304000873040008730400087304000894
:100070007304000873040008730400087304000884
:100080007304000873040008730400087304000874
:100090007304000873040008730400087304000864
:1000A0007304000873040008730400087304000854
:1000B0007304000873040008730400087304000844
:1000C0007304000873040008730400087304000834
:1000D0007304000873040008730400087304000824
:1000E0007304000873040008000000007304000893
:1000F0007304000873040008730400087304000804
:1001000073040008730400087304000873040008F3
:1001100073040008730400087304000873040008E3
:1001200073040008730400087304000873040008D3
:1001300073040008730400087304000873040008C3
:1001400000000000000000000000000000000000AF
:1001500073040008730400087304000873040008A3
:100160007304000873040008730400087304000893
:100170007304000873040008730400080000000002
:100180007304000873040008730400087304000873
:100190007304000873040008730400087304000863
:1001A0002951000873040008730400087304000850
:1001B0007304000873040008730400087304000843
:1001C0007304000873040008730400087304000833
:1001D0007304000873040008730400087304000823
:1001E0007304000873040008730400087304000813
:1001F0007304000873040008730400087304000803
:1002000073040008730400087304000873040008F2
:1002100073040008730400087304000873040008E2
:100220007304000873040008730400080000000051
:100230007304000873040008000000007304000841
:1002400073040008730400087304000873040008B2
:1002500073040008730400087304000873040008A2
:100260007304000873040008730400087304000892
:100270007304000873040008730400080000000001
:1002800073040008730400087304000800000000F1
:10029000000000007304000800F002F800F0CCF841
:1002A00014A696E8000CB244B344DA4501D100F03C
:1002B000C3F8BAE80F000FA696E83000A5EB0405D6
:1002C00004EB0607AAEB0704A7F101074FEA15158F
:1002D0004FEA3414A4F10104AC4201D300F0ACF8AD
:1002E00013F0010F18BFFB1A43F0010300F001F8EF
:1002F000DBE718472CD109005CD109000A444FF014
:10030000000C10F8013B13F0070408BF10F8014B74
:100310001D1108BF10F8015B641E05D010F8016BB9
:10032000641E01F8016BF9D113F0080F1EBF10F81D
:10033000014BAD1C0C1B09D16D1E58BF01F801CB40
:10034000FAD505E014F8016B01F8016B6D1EF9D5C3
:100350009142D6D37047000070470000002300246C
:1003600000250026103A28BF78C1FBD8520728BFC5
:1003700030C148BF0B6070476E2900F0838370293D
:1003800000F0C584662938F0EC84652938F0E984EA
:10039000672938F0E684612938F0E58403681B0A90
:1003A00028BF41F08001692900F03083642900F002
:1003B0002D83752900F02A836F2900F05384782952
:1003C00000F09184E92900F0ED83E42900F0EA834C
:1003D000F52900F0E783EF2900F05084F82900F0B8
:1003E00090840368DB0928BF41F08001632901F094
:1003F000EF81732901F0F481E32901F0FF81F329F2
:1004000001F00482002070471FB538F09DFC9DE884
:10041000030000F063FA01F057FA04000020002105
:1004200038F07CFC401C60600020002138F060FC4B
:10043000E0601FBD10B510BD01F018FA1146FFF7BE
:10044000E3FF31F0CDFC01F0F5FA03B4FFF7F2FF62
:1004500003BC00F065FD00000948804709480047DB
:10046000FEE7FEE7FEE7FEE7FEE7FEE7FEE7FEE764
:10047000FEE7FEE704480549054A064B70470000C1
:10048000A957000899020008300A0120306A0120AB
:10049000302A0120302A012070B5064600F002FA09
:1004A000056806F10B0020F00704B4429CBF002051
:1004B00070BD2B466A68BAB11068A04210D304F12F
:1004C000080188423CBF5068586007D35168101932
:1004D00041601168091B016058601460101D70BDF7
:1004E00013465268002AE7D12146284600F0E2F977
:1004F0000028DED170BD70B50446051F00F0D2F9AA
:100500000068002C14BF446870BD002C18BFAC42BA
:100510003CBF20466468F8D301680A18AA4218BF95
:10052000456003D12A6805461144016028684119D5
:10053000A1421CBF6C6070BD61686960216808449D
:10054000286070BD53EA020C00F069802DE9F04B81
:100550004FF00006002B1FBFB3FA83F503FA05F432
:1005600024FA05F65E4012BF1643B2FA82F502FA8B
:1005700005F4C5F120051EBF22FA05FC44EA0C046F
:10058000203556EA044C4FEA144418BF641C4FF05F
:1005900000084FF00009904271EB030C39D3002999
:1005A00019BFB1FA81F701FA07F6B0FA80F700FA3D
:1005B00007F6C7F120071EBF20FA07FC46EA0C0623
:1005C0002037B6FBF4FCA7EB0507103F07F01F0B25
:1005D000CBF120062CFA06F60CFA0BFB44BFB3460F
:1005E0000026202FA4BF5E464FF0000B5BEA060CEE
:1005F00008BF4FF0010B19EB0B0948EB0608ABFBEA
:10060000027C06FB02CC0BFB03CCC01B71EB0C0184
:10061000C1E70B46024641464846BDE8F08B13B59C
:10062000084318BF4FF0FF300146AFF30080BDE82C
:100630001C4070471CB50C46064B7B446946009035
:10064000204600F038FA04460020694600F046FAD9
:1006500020461CBD9F04000040EA0103024630B55D
:100660009B0710D14FF0013400E008C208C91D1BE0
:100670009D4315EAC41FF8D013F0FF0102F8011BD7
:100680000DD01B0AF8E711F8013B002B02F8013BE3
:1006900005D011F8013B002B02F8013BF3D130BD2E
:1006A00010B5431C02E010F8011B71B18107FAD1AB
:1006B0004FF0013202C88C1A8C4314EAC211F9D0EF
:1006C000C01A0A0603D0C01E10BDC01A10BD0A040D
:1006D00001D0801E10BD0902FCD0401E10BD032AAF
:1006E00040F2308010F0030C00F0158011F8013B4F
:1006F000BCF1020F624498BF11F801CB00F8013B36
:1007000038BF11F8013BA2F1040298BF00F801CBF9
:1007100038BF00F8013B11F0030300F0C783083A2B
:10072000C0F0088051F8043B083A51F804CBA0E827
:100730000810F5E7121D5CBF51F8043B40F8043B7C
:10074000AFF30080D20724BF11F8013B11F801CBB1
:1007500048BF11F8012B24BF00F8013B00F801CB82
:1007600048BF00F8012B704702F0FF0343EA032261
:1007700042EA024200F00AB802F0FF0343EA032211
:1007800042EA024200F024B84FF000020429C0F00F
:10079000128010F0030C00F01B80CCF1040CBCF1B3
:1007A000020F18BF00F8012BA8BF20F8022BA1EB05
:1007B0000C0100F00DB85FEAC17C24BF00F8012BEA
:1007C00000F8012B48BF00F8012B70474FF00002E2
:1007D00000B5134694469646203922BFA0E80C5037
:1007E000A0E80C50B1F12001BFF4F7AF090728BF12
:1007F000A0E80C5048BF0CC05DF804EB890028BF8E
:1008000040F8042B08BF704748BF20F8022B11F0B6
:10081000804F18BF00F8012B704700000000000057
:1008200030B44FF0013C50F8042BCCFA52F451F89C
:10083000043BD51A20D1FCB950F8042BCCFA52F461
:1008400051F8043BD51A17D1B4B950F8042BCCFA9F
:1008500052F451F8043BD51A0ED16CB950F8042B60
:10086000CCFA52F451F8043BD51A05D1002CDAD059
:1008700030BC4FF00000704729BAB1FA81F111F095
:100880001801D1F120008440F2D1CA40CB4012F0CF
:10089000FF0213F0FF0330BCD01A70477047704757
:1008A0007047000000487047B8010020704770474B
:1008B0007047704738B504460A4600206946AFF3D2
:1008C0000080002808BF38BD02460099204600F08D
:1008D00031FB012038BD012000F0C0BFF8B5AFF3F7
:1008E0000080054600200C460C2000BF0646A819D3
:1008F000A0420DD9324669460020AFF300800700C0
:1009000008BF00F0ABFF0098A04218BF0546C4190D
:10091000FFF7C8FF05600746F01D20F007004619E5
:10092000284600F00AF8B44208BFF8BDA21B3146C1
:100930003868BDE8F84000F0FDBA00210160416070
:1009400070470C20704770B5044685690068C10681
:1009500001D5302600E02026C00707D070BDD4E9BD
:10096000012130469047206A401C20626D1EF6D55A
:1009700070BD70B5044685690078C00707D170BDA9
:10098000D4E9012120209047206A401C20626D1E7E
:10099000F6D570BD09684A0501D540B27047C90552
:1009A000FCD500B2704709684A0501D5C0B270474E
:1009B000C905FCD580B2704770B50C460546012AC2
:1009C00005D02878800600D5EA69002302E00123DB
:1009D00005E05B1C934202D2E05C0028F9D1A869D3
:1009E000E618C01AA861286A184428622846FFF74A
:1009F000AAFF04E0D5E9012114F8010B9047B442A5
:100A0000F8D32846FFF7B5FF70BD00002DE9F0418F
:100A10000646002410687529314616A510D0FFF748
:100A2000B9FF002802DA404213A507E031688A07BF
:100A300001D512A502E0490704D511A5012401E062
:100A4000FFF7B1FF00210A2206F1240709E0B0FBFD
:100A5000F2FCB0FBF2F302FB1C0030307854184675
:100A6000491C0028F3D123462A463046BDE8F04110
:100A700000F0BFBA000000002D0000002B000000B5
:100A80002000000011680268006A530501D5087053
:100A90000AE0D30501D5088006E0130603D5C21786
:100AA000C1E9000200E008600120704701694A1CAA
:100AB00002610878704700B58FB0CDE9013100219F
:100AC000059105497944CDE903101146684600F0C7
:100AD00029F90FB000BD0000E5FFFFFF0A6802F82A
:100AE000010B0A60704700002DE9FF5F15468A463A
:100AF0000446DFF8AC80F8440027D8E900103E46F1
:100B0000CDE9001010E03AF816106A4602A800F08D
:100B100081FE411C07D02178890603D5E269391886
:100B200091420DD80744761C2078800602D5E069F2
:100B3000B84205DDAE42E6DB3AF816000028E2D105
:100B4000A069C01BA0612046FFF7FDFED8E9001098
:100B5000CDE90010002017E03AF818106A4602A804
:100B600000F058FEB0F1FF3F81460BD000250DF19B
:100B7000080B05E0D4E901211BF8050090476D1C26
:100B80004D45F7D308F10100B0428046E4DB206A0E
:100B9000384420622046FFF7ECFEBDE8FF9F0000CE
:100BA000728203002DE9F0418046D21D22F0070237
:100BB0000025D2E90002F52915A614D0011E72F114
:100BC000000106DA0023D0EB030063EB020211A65A
:100BD00008E0D8F800108B0701D50FA602E04907FE
:100BE00001D50EA601251146002408F1240704E0D2
:100BF00000F0BAF930323A55641C50EA0102F7D1DC
:100C00002B46324621464046BDE8F04100F0F1B99E
:100C1000000000002D0000002B000000200000005C
:100C200030B4002100F1240408E002F00705D208E6
:100C3000303542EA4372DB086554491C52EA030529
:100C4000F3D10468002310A2250708D504F020047E
:100C50000C4304D0C46901230CA2641EC46130BCDF
:100C600000F0C7B910B5044621461068FFF79BFE97
:100C700002462046BDE810400023D1E7D21D22F0F5
:100C80000701D1E90023CBE700000000300000009D
:100C9000F0B40D460188090502D5214C7C4402E0E0
:100CA0001F4C7C440E34002100F1240608E002F0C1
:100CB0000F071209E75D42EA03721B097754491CCA
:100CC00052EA0307F3D102780023120704D5702DEE
:100CD00006D009B1022311342246F0BC00F089B9D4
:100CE00001231034F8E770B504460D46214610681C
:100CF000FFF759FE024629462046BDE87040002312
:100D0000C6E7D21D22F00703D3E90023C0E703683A
:100D1000126843F0200303600823C3610023B7E790
:100D2000D48003002DE9F05F894604464FF0000AA5
:100D3000DFF874B1FB44C0F820A02046E168884782
:100D4000002874D0252806D0D4E901219047206AD4
:100D5000401C2062F1E700265F462046E168884794
:100D60002028054607DB312D05D2781910F8200C14
:100D700008B10643F1E7B00701D526F00406C4F830
:100D80001CA00027C4F818A02A2D09D0284637F047
:100D9000A7FF38B304EB8708303DC8F8185019E0B6
:100DA00059F8041B204604EB87029161E1688847EB
:100DB000012F054618D1E069002820DA26F0200628
:100DC0001DE0D8F8180000EB800005EB400030383B
:100DD000C8F818002046E1688847054637F080FFCC
:100DE0000028EED1012F0AD02E2D08D12046E1682F
:100DF00088477F1C0546022F46F02006C4DBA06909
:100E0000002803DA404246F00106A061F00701D055
:100E100026F010066C2D0BD0682D09D04C2D39D042
:100E20006A2D35D0742D35D07A2D33D016E038E0C8
:100E3000E1682F4620468847B842054609D16C2F05
:100E400026D04FF48060E168064320468847054677
:100E500004E06C2F1AD04FF4807006430DB3A5F157
:100E60004100192802D8203546F400664A46294632
:100E7000204626604E46FFF77FFA80B101280BD04E
:100E8000F61D26F0070000F1080956E74020E4E7C8
:100E90008020D8E70020D6E706F104094DE7284670
:100EA00052E7206ABDE8F09F6480030010B5203A45
:100EB000C0F00B80B1E81850A0E81850B1E8185005
:100EC000A0E81850203ABFF4F5AF5FEA027C24BFD7
:100ED000B1E81850A0E8185044BF18C918C0BDE8C0
:100EE00010405FEA827C24BF51F8043B40F8043B89
:100EF00008BF7047D20728BF31F8023B48BF11F83E
:100F0000012B28BF20F8023B48BF00F8012B704797
:100F100008B569468DF800000320ABBE08BD00008F
:100F200001491820ABBEFEE72600020000487047CA
:100F3000B0010020034640688C46002818BF884254
:100F40003CBF03464068F8D318681844884207D06D
:100F50000CF1030020F00700001D411A521A01464F
:100F6000081D0A60FFF7C7BA30B5B0F10A0271F187
:100F700000034FEA900E4EEA817EB0EB0E0061EB6B
:100F800091014FEA101E4EEA017E10EB0E0041EB7C
:100F900011114FEA102E4EEA016E10EB0E0041EBDC
:100FA00011214FEA104E4EEA014E10EB0E0041EBBC
:100FB0001141401841F100014FEAD00040EA417070
:100FC0004FEAD1014FEA810444EA907410EB8005A6
:100FD00044EB01046D1944EB0404521BA3414FF090
:100FE000000348BF0A3200D530BD401C41F100016A
:100FF00030BD2DE9F0470D4699469246044600F172
:1010000024080168880604D5E06921F010012160F8
:1010100000E00120A84201DD471B00E00027A16994
:101020007A1902EB0900081AA0612078C00602D4E0
:101030002046FFF788FC002608E0D4E901211AF8D1
:1010400006009047206A401C761C20624E45F4DB67
:101050002078C0060AD52046FFF775FC06E0D4E9E3
:10106000012130209047206A401C2062381EA7F1E1
:101070000107F4DC07E0D4E9012118F805009047E6
:10108000206A401C2062281EA5F10105F3DC2046E1
:10109000FFF76FFC2078000602D50220BDE8F0873C
:1010A0000120FBE72DE9FF4F0C461E464FF0FF37AE
:1010B0008BB0D2E90001DDF860800A908A46C1F366
:1010C0000A5505B93D46002108464FF00000BAF127
:1010D000000F00F4400005DA00EB80004FF44001FF
:1010E00001EA50004FEA9059B9F1010F00DDB9460D
:1010F0000A9850EA4A000ED044F61050A5F2FF3587
:1011000045432F14B8F1000F1ED07542291E1EDD75
:10111000C9F100021CE0B8F1010F4FF0000001D04E
:10112000302103E0F24305E02154401CB042FBDBD8
:1011300030460022002121540B99C1F80880C1E9F2
:1011400000200FB0BDE8F08FBD1B6D1CDEE74A46E6
:1011500000DA694206A800F0FBFB06AB93E8070043
:1011600003AB83E8070050460A9937F0D8F98DE8B9
:101170000700A0F500501F3800900398002D0ADDED
:1011800042F21F014A460844002303A9039068461F
:1011900037F042FC09E0A0F500504A461F38002312
:1011A00003A90390684637F04CFC8DE80700000463
:1011B000000C03D04FF0FF30410800E01046B8F1BA
:1011C000000F03D00022009215461EE0751E05D4C4
:1011D000FFF7CAFE303262556D1EF9D5B3460122C3
:1011E000084302D000227F1C04E02078302801D17F
:1011F00000227F1E002A099784D01DE0112D07DAF6
:10120000FFF7B2FE303262556D1C50EA0102F5D193
:10121000084302D00098C8B10EE00021681E05E026
:10122000235C625C63542254401E491C8142F7DBFC
:10123000AB46A81B401E0990002004F80B000B9839
:10124000099AC0F80880C0E9002B7AE711264FF010
:10125000000857E72DE9F04F88460446D21D22F0DA
:10126000070191B0D1E90001CDE90A0137F020FD75
:1012700002460B98C00F01D02D2007E0206881079F
:1012800001D52B2002E0202101EAC000032A0990A9
:1012900001D0072A05DB03464146204600F018FB33
:1012A0000BE12078800601D5E06900E00620B8F166
:1012B000650F814606D0B8F1660F18D0B8F1670FF8
:1012C00070D131E00020B9F1110F009001DB112342
:1012D00001E009F101030AAA01A90CA8FFF7E2FE47
:1012E000DDE90C70002609F10105834647E0012085
:1012F0004B4600904FF000470AAA01A90CA8FFF73F
:10130000D1FEDDE90DB00C995D46002610B909F15A
:1013100001000D18B9EB050003D4C0F1FF3609F147
:101320000105A5EB09002BE0B9F1010F01DA4FF03F
:1013300001090020B9F1110F0090484601DD112389
:1013400000E003460AAA01A90CA8FFF7ABFEDDE9FD
:101350000C704D4600268346207800070AD4AB4522
:1013600000DA5D4601A8012D04DD411911F8011CC8
:10137000302907D04F4502DA17F1040F04DA0120B3
:1013800082460FE06D1EEEE7002F02DCED1B3E44AF
:1013900003E0781CA84200DD7D1CB81B00F1010AA7
:1013A0004FF000472078000703D4AA4501DB4FF037
:1013B000FF3A0021B7F1004F0DF143088DF84310BB
:1013C00024D002202B23002F01DA7F422D230A2173
:1013D000021EA0F1010000DC5FB197FBF1FC97FB5E
:1013E000F1F201FB1C7C17460CF1300C08F801CD22
:1013F000EEE7A8F1010003702188090501D5452118
:1014000000E06521A0F1010800F8011C09980FA96E
:10141000A1EB0807FF1D00B10120411901EBEA70A3
:10142000A1693844081A401EA0612078C00602D481
:101430002046FFF788FA099828B1D4E9012190479E
:10144000206A401C20622078C00622D52046FFF783
:101450007AFA1EE0002E04DBB34502DD01A8805DB0
:1014600000E03020D4E901219047206A401C20622E
:10147000761CAAF101005FEA000A0AD100F024FA02
:10148000C0680168405CD4E901219047206A401C93
:101490002062281EA5F10105DCDC07E0D4E901216A
:1014A00018F8010B9047206A401C2062381EA7F1F3
:1014B0000107F3DC2046FFF75CFA032011B041E698
:1014C0002DE9F04F04460D46D21D22F0070089B0E9
:1014D000D0E900974846394637F0EAFB0246F80F54
:1014E00001D02D2307E02068810701D52B2302E0DE
:1014F000202101EAC0038DF820300BB1012000E06B
:101500000020032A824601D0072A04DB2946204610
:1015100000F0DEF93FE12078800601D40D2500E0DF
:10152000E569C7F30A560D2D49DA00214FEA175B2A
:1015300008464FF00000002F00F4400007DA00EBEF
:1015400080004FF4400100EBD07001EA600081158B
:10155000012901DD4FF0FF3100224FEA850CBCF17B
:10156000180F06D31346ACF118004FF08052C2405A
:1015700003E04FF4801323FA0CF30CF10C0CBCF1D4
:10158000200F04D3ACF1200C09FA0CF001E007FAAB
:101590000CF000294FF0004801DD18B90FE00ED122
:1015A00040450CD319EB02095F4121B9404502D1F6
:1015B0009F4329EA0209BBEB175F00D0761C208805
:1015C000000502D57B48784402E07A48784419380F
:1015D00008AA302302F80A30037C0AF10101002E28
:1015E0000AF1020A53546A4602DC4FF0300101E06E
:1015F0004FF031014FF001088DF8001002D0A6F233
:10160000FF3603E059EA470100D06B4E002D02DCA3
:101610002178090704D54FF002082E218DF801101A
:10162000C44600210BE0C7F303433F01C35C491CE0
:101630006D1E02F80830052908F1010801DA002DB5
:10164000F1DC00210CE000EB1973491C1B786D1EC6
:10165000082902F808304FEA091908F1010801DAEF
:10166000002DF0DC21688B0602D516E0A8F10108F8
:10167000E04505DD02EB080313F8013C302BF5D003
:10168000B8F1000F09DD02EB080313F8013C2E2B23
:1016900003D1090701D4A8F10108002D05DD3E2181
:1016A00002F808106D1E08F10108407C002E02F8B7
:1016B000080008F1010804DA2D20764202F808003B
:1016C00002E02B2002F808000A214FF47A708642CB
:1016D00008F101080BDB96FBF0F3303302F8083019
:1016E00096FBF0F308F1010800FB136601E0642E9D
:1016F0000CDB642096FBF0F3303302F8083096FBE5
:10170000F0F308F1010800FB136601E00A2E06DB86
:1017100096FBF1F0303002F8080008F1010896FB62
:10172000F1F001FB1060303002F80800A16908F107
:10173000010808EB050202EB0A00081AA0612078F4
:10174000C00602D42046FFF7FEF8216A08AE01EB7E
:101750000A00206204E0D4E9012116F8010B904749
:10176000BAF1010AF7D22078C00602D52046FFF769
:10177000EAF86E4609E016F8010B3E280FD0D4E9CE
:1017800001219047206A401C2062B8F10108F2D282
:101790002046FFF7EEF809B00320BDE8F08F206A7D
:1017A0002844206203E0D4E90121302090476D1ED7
:1017B000EBD3F8E7F677030002FCFFFF10B54369AF
:1017C00013B1AFF3008001E0FFF7F6F8012010BD80
:1017D000127800F124010A7000224A700122EDE71C
:1017E00011684FF0FF32E9E710B5436913B1AFF369
:1017F000008001E0FFF778F9012010BD128800F1A8
:10180000240182840022C2840122EDE711684FF096
:10181000FF32E9E72DE9F04116460C46054600F097
:101820004BF8036893F80101012807D0FF2C12D868
:10183000185D80B101202C70BDE8F081D3F807015C
:101840003246214603F20713C7182846BC46BDE8B6
:10185000F041002360474FF0FF30EDE710B500F096
:10186000F7F8BDE8104000F0EEB870477546FFF796
:101870005DFBAE4605006946534620F007008546ED
:1018800018B020B5FEF7F6FDBDE820404FF0000689
:101890004FF000074FF000084FF0000BAC46ACE8EB
:1018A000C009ACE8C009ACE8C009ACE8C00921F047
:1018B00007018D467047000010B500F005F8001DC7
:1018C00010BD00BF5974030000487047D0010020CC
:1018D0002DE9F0411F46044603260168072A01F45A
:1018E000006004DB08B116A505E016A503E008B109
:1018F00015A500E015A521F010002060A069C01E0C
:10190000A0610FB1401EA0612046FFF71CF84FB147
:10191000D4E9012138469047206A401C2062C01C4F
:10192000206206E0206AFAE7D4E9012115F8010BEC
:101930009047761EF8D22046FFF71BF8BDE8F081ED
:101940004E414E006E616E00494E4600696E660063
:101950002DE9F047814616468AB0354878440DC8CF
:101960008DE80D0032487844801C03AC0DC884E833
:101970000D0041F69B300844372190FBF1F290FBBB
:10198000F1F5A5F1800501FB12041B3C02D5644270
:10199000012000E00020DFF898A080460027FA44EC
:1019A000AAF1BE0A0EE0E0070AD03246684607EB0D
:1019B000470101230AEB810137F043F88DE8070066
:1019C00064107F1C002CEED1194F7F44AE3F19E00C
:1019D000E80715D007EB04100DF1180A90E80E0087
:1019E0008AE80E00C068F04201D19819089032468A
:1019F000012306A903A837F024F803AB83E8070006
:101A00006D10641C002DE3D14FF00103324669468E
:101A1000B8F1000F03A802D036F0FEFF01E037F066
:101A200010F8C9E90001C9F808200AB0BDE8F0873C
:101A3000F074030010B50446AFF300802046BDE803
:101A40001040FEF702BD002801D0FFF769BA7047C9
:101A500010B5012805D0002103A000F021F80120D5
:101A600010BD09A1F8E7000053494752544D454DB8
:101A70003A204F7574206F662068656170206D652F
:101A80006D6F7279000000003A2048656170206D2A
:101A9000656D6F727920636F727275707465640022
:101AA00070B505460C460A2000E06D1CFFF730FAC1
:101AB00035B128780028F8D102E0641CFFF728FA35
:101AC00014B120780028F8D1BDE870400A20FFF753
:101AD0001FBA000000000000FEE700000000000048
:101AE0007047000000000000EFF3108072B600BFE6
:101AF000FEE700000000000070B584B044F681628B
:101B000003920D46064600926946BA200C22002434
:101B1000CDE9014400F028F800280BD49DF802001C
:101B200060B141B2B1F1FF3F0CDD002403A80321F5
:101B300000F0BEF8204604B070BD00BF002420466F
:101B400004B070BD10F00F00EFD0BDF804100024F9
:101B50004A090E2AEAD8BDF806201309102BE5D849
:101B6000044631602A60E1E7F0B581B0941E02229C
:101B70000D4606468F1C03F07BF918B100210122A7
:101B800009E000BFA2B23046394602F0CDFDB0FAFE
:101B900080F102224909002918BF104602285FD0AF
:101BA00002223046294603F063F918B100210122D0
:101BB00009E000BFA2B23046394602F0B5FDB0FAE6
:101BC00080F102224909002918BF1046022847D097
:101BD00002223046294603F04BF918B100210122B8
:101BE00009E000BFA2B23046394602F09DFDB0FACE
:101BF00080F102224909002918BF104602282FD07F
:101C000002223046294603F033F918B1002101229F
:101C100009E000BFA2B23046394602F085FDB0FAB5
:101C200080F102224909002918BF1046022817D066
:101C300002223046294603F01BF918B10021012287
:101C400009E000BFA2B23046394602F06DFDB0FA9D
:101C500080F102224909002918BF1046022803D149
:101C6000022001B0F0BD00BF29884CF65B53C0F6DE
:101C700009030546184623464ABA03A100F028FA8C
:101C8000284601B0F0BD00BF49324320526561646F
:101C90003A203078253034582C202564206279741D
:101CA0006573206661696C65642E000000000000A9
:101CB00070B5CEB205460C46BA202946324603F02E
:101CC000D7F802281BD3BA202946324603F0D0F8B1
:101CD000022814D3BA202946324603F0C9F8022854
:101CE0000DD3BA202946324603F0C2F8022806D3A3
:101CF000BA202946324603F0BBF8022802D201205E
:101D000070BD00BF29884CF65B56C0F60906A31EBD
:101D1000044630464ABA02A100F0DAF9204670BD06
:101D20004932432057726974653A2030782530343F
:101D3000582C202564206279746573206661696C73
:101D400065642E0000000000F0B5CBB002F0E0FFAB
:101D50006F464FF4A140ADF8000000208DF802005E
:101D6000BA2003223946FFF7FFFE40B200281FDCED
:101D70006946BA200322FFF7F7FE40B2002817DCBD
:101D80006946BA200322FFF7EFFE40B200280FDCBD
:101D90006946BA200322FFF7E7FE40B2012807DABE
:101DA0006946BA200322FFF7DFFE010600F1D0806A
:101DB00000F00AF94FF48170FEF76EFB002800F086
:101DC0008780054648F680614FF4A140C0F60301C4
:101DD0002880A81CEF220026C5F8F160C5F8F56040
:101DE000C5F8F960C5F8FD6085F80161FEF777FC7C
:101DF00040F2E010B31CC0F21010C5F8030005203B
:101E00002872A819EA2B4188828809BA06EB11408A
:101E100011BA06F104020DD2AB18941C00EB11406C
:101E2000EA2C5E889B8802F1040236BA19BA00EBEC
:101E30001640F1D300EB1140404285F8EF00010A53
:101E400085F8EE10012085F8F000F3212846FFF711
:101E50002FFF002815DCF3212846FFF729FF002873
:101E60000FDCF3212846FFF723FF002809DCF321CC
:101E70002846FFF71DFF002803DCF3212846FFF763
:101E800017FF642000F0BCF928884FF49672ADF873
:101E90000000BA203946FFF767FE002029183A18DB
:101EA000CB78D678B3421FD10B791679B3421DD1C6
:101EB0004B795679B3421BD18B799679B34219D1BC
:101EC000C979D279914217D10530EB28E6D11BE0D0
:101ED0004CF65B5038A1C0F6090000F0F9F84FF05D
:101EE000FF304BB0F0BD00BFC21C06E0021D04E095
:101EF000421D02E0821D00E0C21D4CF65B5021A194
:101F0000C0F6090000F0E4F82846FEF7F4FA02F003
:101F1000E3FB0020CDF80600CDF802004FF4A3400B
:101F2000ADF800006946BA200A22FFF71DFE00281E
:101F30000AD4BDF80220BDF804304CF6495018A16F
:101F4000C0F6090000F0C4F800204BB0F0BD00BF9F
:101F500044B24CF65B50C0F6090003A100F0B8F89B
:101F600020464BB0F0BD00BF49324320636F6D6D1A
:101F7000756E69636174696F6E204552524F5221CC
:101F800000000000436F6E666967206661696C201F
:101F90006174206F666673657420256421000000FB
:101FA000585F4D4158203D2025642C20595F4D41FC
:101FB00058203D20256400006D616C6C6F632066C5
:101FC00061696C210000000010B586B044F2810008
:101FD000049004A9BA20082200240594FFF7C4FD48
:101FE000002825D49DF81400372825D137209DF8E6
:101FF00017C09DF812209DF815109DF813309DF81C
:1020000016408DE803104CF6545029A1C0F6090083
:10201000039400F05DF89DF812000124392807D1DF
:102020009DF81300312804BF9DF8140037281DD0F7
:10203000204606B010BD00BF9DF815409DF8122047
:102040009DF817109DF81330CDE900044CF654505C
:102050009DF816C00291C0F609000BA1CDF80CC086
:1020600000F036F80124204606B010BD9DF815009A
:102070005328DDD140F624200021C2F20100017076
:10208000204606B010BD00BF556E6B6E6F776E2098
:1020900049432056657273696F6E3A202563256344
:1020A000256325635F2530327825303278000000C3
:1020B00049432056657273696F6E3A202563256324
:1020C000256325635F2530327825303278000000A3
:1020D00082B0F0B581B0054606A800902846069269
:1020E0000C460793FEF7DCFA40F2CC470646C2F2F4
:1020F0000007421C38462946FEF7F1FAB819009A43
:102100002146FEF797FA304440F60D223918431C59
:102110007E2B3A524FF000028A700DD8023040F206
:10212000CC4182B240F60000C2F20000C2F20001CF
:102130004FF6FF7302F0F4F901B0BDE8F04002B0D1
:10214000704700000000000000283FD010B590F854
:10215000611031B9002180F86010044600F038F8B1
:102160002046022180F8611090E806404FF6BF73C8
:10217000D0F80CC00C68CFF6F8732340C4691A433A
:1021800040F2071322430A604A6B9A43836942EA8A
:102190000E021A434A630A6C4FF6FF739A4342EAEF
:1021A0000C020A644A6B036922F44012446942EA51
:1021B000035242EA44524A6300214166012280F8F8
:1021C0006120BDE810400846704700BF01207047FD
:1021D00041F200010068C5F20021884218BF704733
:1021E00081B044F2D440C5F60200016841F010010C
:1021F0000160006800F010000090009801B0704786
:10220000B0B5044600F0FCF840F200010546C2F209
:102210000001621C097818BF0C4400BF00F0F0F800
:10222000401BA042FAD3B0BD2DE9F04F83B00F6838
:10223000002F00F0C98000F1264642F2004506F169
:10224000FF76C5F602050A22A8424FEAB62540F2FB
:10225000040C08BF092200F120030093092DC5F6E4
:10226000000C38BF4FEAB622002400264FF00008C9
:1022700001920AE008F101080F6837FA08F206F146
:10228000020604F1040400F09F80012202FA08FE15
:1022900017EA0E09EED0D1F804B003220BF00307C1
:1022A000B2407D1E6FEA020A012D11D88268CD6806
:1022B00002EA0A02B5402A438260CBF30015426865
:1022C00022EA0E0205FA08F52A43426004E000BF44
:1022D000032F01D103271FE0C2688D6802EA0A02BA
:1022E000B540022F42EA0502C26015D16FF0030229
:1022F00004F01C0502EA580B009A0F2352F80BE079
:10230000AB400F692EEA0303AF403B4342F80B306A
:10231000D1F804B00BF00307026807FA06F302EAEB
:102320000A021BF4403F42EA03020260A2D044F2D8
:10233000F44340F2084EC5F60203C5F6000E0F2521
:102340001A6842F002021A601A6802F0020202924F
:1023500028F00302029B04F00C0352F80E709D401B
:10236000AF43019D05FA03F33B4342F80E304FF0B3
:10237000B04EDEF800204B6842EA0907DD0258BF84
:1023800022EA09079D02CEF80070DCF8002042EA3C
:10239000090758BF22EA09079D03CCF80070DCF852
:1023A000802042EA090758BF22EA0907DB03CCF87C
:1023B0008070DCF87C2042EA090758BF22EA09074E
:1023C000CCF87C7056E700BF03B0BDE8F08F00008A
:1023D0000069084018BF012070470000000000009D
:1023E000002A08BF09048161704700000000000056
:1023F00041F20000C5F600400068000C7047000084
:1024000040F62820C2F2010000687047000000007A
:1024100040F2000040F62821C2F20000C2F20101A1
:1024200000780A681044086070470000000000004F
:1024300080B5032000F03CFB01F0EAFB44F21841B8
:1024400048F66F73C5F60201C0F603030A68C2F3CB
:1024500003229A5C096801F00F0102F01F02595C27
:10246000D04040F20C02C2F2000201F01F0120FA3B
:1024700001F1116040F20801C2F2000108600F2072
:1024800000F00AF800281CBF012080BD00F0A4FA6B
:10249000002080BD00000000B0B540F20005C2F28F
:1024A00000052978F1B1044640F20800C2F20000AC
:1024B0004FF47A72B2FBF1F10068B0FBF1F001F079
:1024C000EFFE0F2C01464FF001000AD8002918BF7B
:1024D000B0BD4FF0FF300022214600F0B9FA0020D5
:1024E0006C60B0BD0120B0BD90F8A030012B4FF062
:1024F000020331D02DE9F04134244FF0010880F877
:10250000A08080F8A13002FB0403D1E900CED1E91C
:102510000267D1E90445C3E91245C3E91067C3E97D
:102520000ECED1E906CED1E90854D1E90A76C3E945
:102530001876C3E91654C3E914CE0F6B9F660446A0
:1025400002F0FAFD20680023C0F8248084F8A180FE
:1025500084F8A030BDE8F041184670470000000044
:10256000704700000000000070B504460068866BEC
:10257000456B710716D515F0040113D0416B21F09E
:10258000040141630421C163D4F8A40040F00100B8
:10259000C4F8A40084F8A110002084F8A00020460C
:1025A000FFF7DEFFB00718D515F0020015D0206840
:1025B000416B21F0020141630221C163D4F8A40000
:1025C00040F00200C4F8A400042084F8A100002018
:1025D00084F8A0002046FFF7C3FFF00718BF15F0EE
:1025E000010017D1300726D515F0080008BF70BDCF
:1025F0002068416B21F0080141630821C16301207B
:1026000084F8A100002084F8A0002046BDE87040B6
:1026100000F06AB92068416B21F00101416301219A
:10262000C16384F8A110002084F8A000204600F0C7
:1026300077F83007D8D470BD00286DD010B590F869
:10264000A11031B9002180F8A010044600F06CF808
:102650002046022180F8A110D0E9001CD0E9023404
:102660008A6922F070428A6143EA0C0203692243BC
:102670001A438B691A438A614FF600038A68CFF2C6
:1026800000031A408A60D0E9052444EA02428C68BB
:1026900022438A60CA681A40CA60D0E9072444EA23
:1026A0000242CC682243CA600A691A400A61D0E932
:1026B000092444EA02420C6922430A614A691A4029
:1026C0004A61D0E90B2343EA02424B691A434A614B
:1026D00090F8352090F83630CC6A04F07F44CC6214
:1026E0001B0490F8344043EA0222CB6A22441A4386
:1026F000CA624A6B42F006024A638A6942F00102EA
:102700008A610021C0F8A410012280F8A120BDE850
:1027100010400846704700BF0120704700000000CD
:1027200070470000000000002DE9F043B7B00446F8
:1027300002A80830B82100253295CDE93555CDE9FC
:102740003355FEF743F841F200012068C5F200015D
:10275000884203D037B0BDE8F08300BF4FF000508F
:10276000029005200C90C0200D903C2010904FF45A
:102770000060119002A803954FF002081395CDE96F
:102780000E8800F009FB08B1FFF7AEF944F2E04013
:1027900040F20044C5F60200C5F6020432AD00273F
:1027A0004168032641F00801416041684FF00E097D
:1027B00001F0080101910199016841F004010160F3
:1027C000016801F0040101910199016841F00101E2
:1027D0000160016801F0010101910199016841F076
:1027E00002010160016801F0020101910199016893
:1027F00041F010010160016801F01001019101999F
:10280000016841F0080101600068294600F00800F5
:1028100001900198C120CDE9320804F58060349719
:102820003596CDF8D890FFF7FFFC78202946CDE902
:102830003208A4F58060CDF8D890CDE93476FFF762
:10284000F3FC0920369020462946CDE93268CDE9CF
:102850003476FFF7E9FC4FF478402946CDE9320899
:1028600004F54060CDF8D890CDE93476FFF7DCFC74
:102870004FF470602946CDE932082046CDF8D89053
:10288000CDE93476FFF7D0FC4FF481602946CDE9DD
:10289000320804F50060CDF8D890CDE93476FFF722
:1028A000C3FC58200021002200F0D2F8582000F08C
:1028B000BBF837B0BDE8F08390F8A020012A4FF0B4
:1028C00002020DD080F8A1200268536B43F0080388
:1028D000536351620022012180F8A11080F8A020EA
:1028E0001046704700000000704700000000000024
:1028F00090F8A030012B4FF0020318D0B0B534246B
:10290000012502FB040480F8A05080F8A13004F1F6
:102910003803E1651946044602F00EFC20680023E6
:10292000456284F8A15084F8A030BDE8B040184654
:10293000704700000000000010B54EF6A05E43781E
:10294000CEF2000E90F800C04EF8083CDEF80030E1
:1029500023F00103CEF8003043684EF8043C037BBB
:10296000C27A817A447B120642EA0372837B42EA8E
:10297000C141C27B41EA8441447A41EA4341007A41
:1029800041EA024141EA042141EA400040EA0C00E8
:10299000CEF8000010BD00004EF62450CEF200002C
:1029A000BFF35F8F016821F480310160002101676E
:1029B00070470000000000004EF6245140F0010076
:1029C000CEF200010867086840F480300860BFF369
:1029D0004F8FBFF36F8F704781B044F2F440C5F65C
:1029E0000200016841F002010160006800F002008D
:1029F0000090009801B07047002848BF70474EF221
:102A0000801300F01F01C0F34A10CEF20003012230
:102A100002FA01F143F82010BFF34F8FBFF36F8F1D
:102A20007047000000000000002848BF704700F019
:102A30001F01012202FA01F14EF20012C0F34A1006
:102A4000CEF2000242F820107047000000000000A3
:102A500070B54EF60C5C4FF0FF36CEF2000C00F174
:102A6000604505F56445DCF80030C3F3022E8EF0B6
:102A70000703042B28BF0423BEF1030406FA03F363
:102A800021EA030100F00F0338BF0024043B0028B3
:102A9000634406FA04F048BF03F10C05A14022EAA2
:102AA000000008430001287070BD00000000000015
:102AB0004EF60C514FF6FF03CEF200010A681A40A1
:102AC00060F30A2242F0806040F0FD7008607047B9
:102AD000B0B544F60C05C5F6020529684907296812
:102AE00006D401F00701081A18BF0120B0BD00BFCD
:102AF00021F0070108432860FFF782FC044600BF6D
:102B000055F8080C800407D4FFF77AFC001BB0F5D9
:102B10007A7FF5D90120B0BD0020B0BD00000000D3
:102B200080B500F0EDFF44F2204148F66F72C5F623
:102B30000201C0F603020968C1F30211515C01F001
:102B40001F01C84080BD000080B544F2384EC5F674
:102B5000020E5EF8103C5EF8101C5EF80C2CC1F3FF
:102B6000053CDEF80410BCF1000F19D0C9089FED38
:102B70003C1AD20601EAE27103F003026FF35F31FF
:102B800000EE101AB8EE400ADFE802F0022210222E
:102B90005EF8381C89060DD49FED331A18E000BF8B
:102BA00000218160C0E9001180BD00BF9FED2D1A9A
:102BB0000EE000BF5EF8381C49F20002C0F2D032CD
:102BC000C1F3C10122FA01F101EE101AB8EE411A67
:102BD000DEF800109FED253A6FF35F2102EE101A28
:102BE000DEF80010C1F34621B8EE422A013100EEB2
:102BF000032A00EE10CAB7EE003AB8EE400A81EEA2
:102C0000000A32EE031A20EE010A01EE101AB8EEA5
:102C1000411A80EE011ABCEEC11A80ED001ADEF8EE
:102C20000010C1F30641013101EE101AB8EE411A4D
:102C300080EE011ABCEEC11A80ED011ADEF8001018
:102C4000C1F30661013101EE101AB8EE411A80EEAF
:102C5000010ABCEEC00A10EE101A816080BD00BFF0
:102C60000024744A20BCBE4B0024744C0000003980
:102C700080B544F2404EC5F6020E5EF8183C5EF890
:102C8000181C5EF8142CC1F3055CDEF80410BCF1CE
:102C9000000F19D0C9089FED3C1AD20501EAE27174
:102CA00003F003026FF35F3100EE101AB8EE400A32
:102CB000DFE802F0022210225EF8401C89060DD4E3
:102CC0009FED331A18E000BF00218160C0E90011B8
:102CD00080BD00BF9FED2D1A0EE000BF5EF8401CC6
:102CE00049F20002C0F2D032C1F3C10122FA01F16F
:102CF00001EE101AB8EE411ADEF800109FED253AE9
:102D00006FF35F2102EE101ADEF80010C1F34621C6
:102D1000B8EE422A013100EE032A00EE10CAB7EEE7
:102D2000003AB8EE400A81EE000A32EE031A20EEB5
:102D3000010A01EE101AB8EE411A80EE011ABCEE3B
:102D4000C11A80ED001ADEF80010C1F3064101310E
:102D500001EE101AB8EE411A80EE011ABCEEC11A4B
:102D600080ED011ADEF80010C1F30661013101EEB9
:102D7000101AB8EE411A80EE010ABCEEC00A10EE3D
:102D8000101A816080BD00BF0024744A20BCBE4B75
:102D90000024744C000000392DE9F0470446C07847
:102DA00044F22C480007C5F6020828D5A06E4FEA69
:102DB000305103292AD8DFE801F0030B131B00BFB1
:102DC000D8F8001041F40031C8F8001010E000BF3E
:102DD00004F10800022102F043FB064680B906E038
:102DE00004F12800022102F0CFFB064640B9A06E94
:102DF000D8F8241021F440110843C8F82400002614
:102E00006078C00706D135462FE000BF0126607804
:102E1000C007F8D0A06D042858D83546DFE800F088
:102E200004140E0B0B0000BFD8F80000354640F428
:102E30000030C8F800002F46C5B90DE004F12800A5
:102E4000002102F0A1FB04E004F10800002102F0DF
:102E500007FB05462F464DB9D8F82400A16D20F098
:102E6000070000250843C8F824003746607880072B
:102E700031D5E06D4FEAB01004285FD8DFE800F0EC
:102E800004140E0A0A0000BFD8F8000040F4003015
:102E9000C8F800002E46FDB90EE000BF04F128007E
:102EA000002102F071FB04E004F10800002102F0AF
:102EB000D7FA05462E467DB9D8F82400E16D20F4F6
:102EC000E07000250843C8F8240004E0012501272C
:102ED00060788007CDD43E466078400733D5D4F87B
:102EE000A8004FEA7050042860D8DFE800F0031310
:102EF0000D090900D8F8000040F40030C8F80000BF
:102F0000A9460DBB0EE000BF04F12800002102F02D
:102F10003BFB04E004F10800002102F0A1FA0546A1
:102F2000A9468DB9D8F82C00D4F8A81020F4600078
:102F300000250843C8F82C0005E000BF0125012644
:102F400060784007CBD4B1466078000734D5D4F818
:102F5000AC004FEA306004285ED8DFE800F00313CD
:102F60000D090900D8F8000040F40030C8F800004E
:102F70002F4615BB0EE000BF04F12800002102F02F
:102F800003FB04E004F10800002102F069FA0546A1
:102F90002F4695B9D8F82C00D4F8AC1020F0E0609A
:102FA00000250843C8F82C0006E000BF01254FF0BB
:102FB000010960780007CAD44F46E078800730D511
:102FC000E06C4FEA3010032820D8DFE800F0090356
:102FD000150900BFD8F8000040F40030C8F8000020
:102FE0002E46ADB9D8F82000E16C20F03000002565
:102FF0000843C8F8200014E004F10800022102F0A0
:103000002FFA05462E461DB9ECE700BF0125012623
:103010006078C00609D434E001250127E0788007F4
:10302000CED43E466078C0062BD5206E4FEA3030B5
:10303000042839D8DFE800F004140E0A0A0000BFA3
:10304000D8F8000040F40030C8F800002F46CDB991
:103050000EE000BF04F12800002102F095FA04E020
:1030600004F10800002102F0FBF905462F464DB996
:10307000D8F82400216E20F4E04000250843C8F869
:10308000240037466078800635D5606E4FEA3040C0
:10309000052815D8DFE800F0041A0E04040400BF68
:1030A0002E46DDB91EE000BF0125012760788006AD
:1030B000EBD420E004F12800012102F065FA0AE0D7
:1030C000012501266078400619D449E004F1080082
:1030D000012102F0C5F905462E461DB16078400673
:1030E0000DD43DE0D8F82400616E20F4E0200025E6
:1030F0000843C8F824003E466078400630D5D4F82E
:10310000B0004FEA307005280ED8DFE800F0031356
:10311000070303032F46ADB918E000BF04F12800F0
:10312000012102F031FA0AE001250127607800064A
:103130001AD43CE004F10800012102F091F905469F
:103140002F461DB1607800060ED430E0D8F82C0070
:10315000D4F8B01020F0E04000250843C8F82C0057
:1031600037466078000622D5206F58B1B0F1005F75
:103170000CD0B0F1805F37D1D8F8000040F40030B7
:10318000C8F800002E469DB908E000BF04F1080011
:10319000012102F065F905462E464DB9D8F8240004
:1031A000216F20F0405000250843C8F824003E4617
:1031B000E078C0071DD0A06C032855D8DFE800F0E8
:1031C00008024A08D8F8000040F40030C8F80000AF
:1031D000A9467DB9D8F82000A16C20F00300002595
:1031E0000843C8F8200004E001250126E078C00764
:1031F000E1D1B146A078400602D44F4618E000BFA6
:10320000D8F8D40340F48070C8F8D403FFF7F8F876
:10321000064600BFD8F8D403C00507D4FFF7F0F87E
:10322000801B6428F6D90325032701E02F46FDB152
:103230002078C00700F06F80E06F4FEAF0000528AB
:103240004ED8DFE800F0035347030303002D2E465A
:1032500054D157E004F10800022102F001F90546BB
:10326000002DA946C6D1B5E701254FF00109C1E7F8
:10327000D8F84410D4F8B400414011F4407F11D084
:10328000D8F84410D8F8442042F48032C8F84420DA
:10329000D8F8442021F4407122F48032C8F8442048
:1032A000C8F84410B0F5807F40F0E082FFF7A8F83E
:1032B000064641F2883A0325032700BFD8F84400A8
:1032C000800700F1D182FFF79BF8801B5045F5D9AC
:1032D000AEE700BF04F12800012102F055F90AE031
:1032E000012501262078800719D446E004F1080062
:1032F000012102F0B5F805462E461DB12078800761
:103300000DD43AE0D8F82800E16F20F0380000250D
:103310000843C8F828003E46207880072DD5A06FC6
:1033200005280FD8DFE800F004140804040400BFE7
:103330002F46ADB918E000BF04F12800012102F0CA
:1033400023F90AE0012501272078400719D447E036
:1033500004F10800012102F083F805462F461DB153
:10336000207840070DD43BE0D8F82800A16F20F06A
:10337000070000250843C8F8280037462078400792
:103380002ED5D4F8940005280ED8DFE800F00313FA
:10339000070303032E46ADB918E000BF04F128006F
:1033A000012102F0F1F80AE00125012620788006CB
:1033B0001AD44BE004F10800012102F051F805464F
:1033C0002E461DB1207880060ED43FE0D8F82C00A0
:1033D000D4F8941020F0070000250843C8F82C000A
:1033E0003E462078800631D5D4F890004FEA307000
:1033F00005280FD8DFE800F004140804040400BF17
:103400002F46ADB918E000BF04F12800022102F0F8
:10341000BBF80AE001250127207840061AD44BE0CA
:1034200004F10800002102F01BF805462F461DB1EB
:10343000207840060ED43FE0D8F82800D4F8901049
:1034400020F0E04000250843C8F8280037462078DF
:10345000400631D5D4F89C004FEAB02005280FD89B
:10346000DFE800F004140804040400BF2E46ADB9E0
:1034700018E000BF04F12800022102F085F80AE0FC
:1034800001250126207800061AD44EE004F1080038
:10349000002101F0E5FF05462E461DB1207800060B
:1034A0000ED442E0D8F82C00D4F89C1020F4E05060
:1034B00000250843C8F82C003E462078000634D585
:1034C000D4F8A0004FEA7030052815D8DFE800F0E6
:1034D000041A0E04040400BF2F46E5B1206801075A
:1034E00027D4C1063ED4000355D477E004F1280068
:1034F000022102F049F80AE00125012720680107AE
:10350000EFD516E004F10800002101F0A9FF0546FF
:10351000002D2F46E2D1D8F82C00D4F8A01020F4CA
:10352000604000250843C8F82C0037462068010792
:10353000D7D5D4F88400B0F5805F09D104F1280014
:10354000022102F021F8002818BF0127D4F88400D6
:10355000D8F8281021F440510843C8F82800206802
:10356000C106C0D5D4F89800B0F5807F09D104F128
:103570002800022102F008F8002818BF0127D4F81B
:103580009800D8F82C1021F440710843C8F82C009A
:103590002068000322D5D4F8A400B0F5003F11D074
:1035A000B0F5803F08D0002844D104F10800002184
:1035B00001F056FF05E000BF04F12800022101F0F0
:1035C000E3FF05462E4655B9D8F82C00D4F8A410D0
:1035D00020F4403000250843C8F82C003E46A0786F
:1035E00040072CD5D4F88800B0F5401F0BD0B0F5BB
:1035F000001F0BD0B0F5801F2AD1D8F8000040F48E
:103600000030C8F800002F46D5B907E004F12800C3
:10361000012101F0B9FF05462F468DB9D8F82800E1
:10362000D4F8881020F4401000250843C8F828007A
:1036300005E000BF01250126A0784007D2D4374617
:10364000A078C00709D13E462168880015D532E030
:1036500001250127A078C007F5D0206DB0F5803F87
:1036600010D018BBD8F8000040F40030C8F80000B3
:103670002E4685B1216888001DD460688A0326D44F
:1036800069E000BF04F10800022101F0E9FE0546EF
:10369000002D2E46EED1D8F82000216D20F4803088
:1036A00000250843C8F82000CDE700BF012501260A
:1036B00021688800E1D504F12800022101F064FFAF
:1036C000002818BF0126D4E900108A0343D5D4F896
:1036D00080206FF0010303EB3223022B0BD34FEA60
:1036E000322343B1012B40F0B980D8F8003043F4C5
:1036F0000033C8F800303DB3CA022FD4CA0037D413
:103700008A0240D44A0048D4CA0F55D109025DD478
:10371000C10766D181076FD4410779D4010700F151
:103720008380C10600F18C80800607D504F1280053
:10373000022101F029FF002818BF0125002D18BF24
:1037400001252846BDE8F087D8F8283023F44073D7
:103750001A43C8F828203546CA02CFD5D8F8242005
:10376000636F22F000421A43C8F82420CA00C7D56C
:1037700058F81C2CD4F8B83022F480421A4348F888
:103780001C2C8A02BED5D8F82420E36E22F0807269
:103790001A43C8F824204A00B6D558F81C2C22F445
:1037A000004248F81C2CD4F8BC2058F81C3C1A43A2
:1037B00048F81C2CCA0FA9D0D8F82020636D22F03D
:1037C00040521A43C8F820200902A1D5D8F8281081
:1037D000D4F88C2021F440011143C8F82810C10707
:1037E00098D004F10800002101F03AFE002818BF2B
:1037F0000546606881078FD504F10800012101F0BA
:103800002FFE002818BF0546606841077FF586AF88
:1038100004F10800022101F023FE002818BF05462C
:10382000606801077FF57DAF04F12800002101F0F9
:10383000ABFE002818BF05466068C1067FF574AF6F
:1038400004F12800012101F09FFE002818BF054661
:10385000606880063FF56AAF70E700BF0125CA02C5
:103860007FF54CAF7AE700BFD4F8B4004FF6CF73C2
:1038700058F81C2CC0F2FF0300F4407122F47C5273
:1038800003EA10136FF31F30B1F5407F08BF1A43EE
:10389000002548F81C2CD8F844100843C8F8440008
:1038A000FFF7ABBC000000002DE9F04381B0002819
:1038B00000F0208142F200090446C5F20029D9F83F
:1038C000000000F00F0081420DD9D9F8000020F06F
:1038D0000F000843C9F80000D9F8000000F00F00FD
:1038E000884240F00781206844F218464207C5F636
:1038F00002060AD52269336803F070039A4204D99C
:10390000336823F070031A43326002070AD56269F4
:10391000736803F070039A4204D9736823F070034C
:103920001A437260C2060AD5A269736803F4E063A1
:103930009A4204D9736823F4E0631A4372608206E2
:103940000AD5E269B36803F070039A4204D9B368F8
:1039500023F070031A43B26010F002020AD0E36849
:10396000376807F00F07BB4204D9376827F00F0705
:103970003B433360C3073FD0306820F47062D4E922
:1039800001031A433260012856F8182C0AD0032884
:1039900004D002280AD192030BD4ABE0920108D4E0
:1039A000A8E000BFD20504D4A4E000BF520740F154
:1039B000A180884656F8081C21F00701084346F804
:1039C000080CFEF71DFD054641F2883756F8080C35
:1039D000616800F03800B0EBC10F09D0FEF710FDB0
:1039E000401BB842F2D9032001B0BDE8F08300BF0C
:1039F0002068414600F0020252B1E268336803F0E9
:103A00000F039A4204D2336823F00F031A43326043
:103A1000D9F8002002F00F0291420CD2D9F8002010
:103A200022F00F020A43C9F80020D9F8002002F062
:103A30000F028A425ED141070AD52169326802F03D
:103A40007002914204D2326822F070021143316058
:103A500001070AD56169726802F07002914204D2CE
:103A6000726822F0700211437160C1060AD5A16923
:103A7000726802F4E062914204D2726822F4E06259
:103A80001143716080060AD5E069B16801F07001E8
:103A9000884204D2B16821F070010843B06000F0A0
:103AA000B7F8316848F66F72C0F60302C1F303211C
:103AB000515C336803F00F0301F01F01D25C20FA60
:103AC00001F102F01F0040F20C02C2F2000221FAE2
:103AD00000F0106040F2040040F20802C2F2000060
:103AE000C2F200020068116001B0BDE8F043FEF7C9
:103AF000D3BC00BF012001B0BDE8F083000000008E
:103B000080B500F085F844F2184148F66F73C5F6A9
:103B10000201C0F603030A68C2F303229A5C096833
:103B200001F00F0102F01F02595C20FA02F201F0CD
:103B30001F0040F20C01C2F2000122FA00F00860FE
:103B400040F20801C2F200010A6080BD00000000DE
:103B500080B500F05DF844F2184C48F66F73C5F676
:103B6000020CC0F60303DCF80020C2F303229A5CC7
:103B7000DCF8001001F00F0102F01F02595CD04088
:103B800040F20C02C2F2000201F01F0120FA01F122
:103B9000116040F20802C2F200021060DCF804007A
:103BA000C0F30210185C00F01F0021FA00F080BD85
:103BB00080B500F02DF844F2184C48F66F73C5F646
:103BC000020CC0F60303DCF80020C2F303229A5C67
:103BD000DCF8001001F00F0102F01F02595CD04028
:103BE00040F20C02C2F2000201F01F0120FA01F1C2
:103BF000116040F20802C2F200021060DCF804001A
:103C0000C0F30220185C00F01F0021FA00F080BD14
:103C100044F20041C5F602010869C0F3C20003285E
:103C200016D002280ED0002832D10868800649F24A
:103C30000000C0F2D03058BF70470968C1F3C1011D
:103C4000C840704747F64000C0F27D10704700BF83
:103C50008B6A886AD1F82CC04A6BC0F30510E8B1B2
:103C6000C2F3CC0203F0030300EE102A9FED2A1AE0
:103C7000B8EE400A20EE010A9FED281ADFE803F0B3
:103C8000022110210A6892060ED49FED261A18E030
:103C900040F60010C0F23D00704700BF00207047A2
:103CA0009FED1F1A0DE000BF0A6849F20003C0F241
:103CB000D033C2F3C10223FA02F201EE102AB8EEA9
:103CC000411A0A6B9FED183A6FF35F2202EE102A39
:103CD0005FEACC7203FE000A03EE100A086BB8EE2E
:103CE000422AC0F34620B8EE433A013030EE020AD1
:103CF000B7EE002A81EE031A30EE020A21EE000A26
:103D000001EE100AB8EE411A80EE010ABCEEC00ABC
:103D100010EE100A704700BF000000390024744AFA
:103D200020BCBE4B0024744C0000000000000000CA
:103D300070B3F0B581B00446007844F20046C00785
:103D4000C5F6020626D12078800740F1C28030698E
:103D500010F03801B06A3FD0182908BF5FEA8070C0
:103D60003AD0E0683168002862D021F01901084398
:103D70003060FEF745FB05463068400748D4FEF743
:103D80003FFB401B0228F7D9032001B0F0BD00BF64
:103D900001207047306900F03801B06A102905D061
:103DA00018290BD100F00300022807D130688003E6
:103DB000C9D560680028C6D13CE100BF61683068A1
:103DC00000294FD0B1F5A02F44D0B1F5803F5FD18D
:103DD00040F4803062E000BF30684007E06802D500
:103DE000002800F02781316821F019010843306074
:103DF000FEF706FB054600BF3068400708D4FEF713
:103E0000FFFA401B02284FF00300F5D901B0F0BDC6
:103E1000FEF7EEFA41F2030188424FD8206971683B
:103E2000402821F47C3151D141F4003050E000BFF2
:103E300021F001003060FEF7E3FA054630684007E4
:103E400047D5FEF7DDFA401B02284FF00300F5D9F5
:103E5000DCE700BF40F480203060306840F4803000
:103E60001CE000BF20F480303060306820F48020F7
:103E70003060FEF7C5FA0546306880037FF563AF12
:103E8000FEF7BEFA401B64284FF00300F4D9BDE7EB
:103E900020F480303060306820F480203060FEF7FD
:103EA000AFFA0546306880033FF54DAFFEF7A8FA3C
:103EB000401B6428F6D9032001B0F0BD7068216969
:103EC00020F0FE4040EA016002E000BF41EA00301D
:103ED00070602078C00654D5306900F03801B06AAF
:103EE000082905D0182919D100F00300012815D19F
:103EF0003068C00503D5E069802840F09B80FEF75C
:103F000077FA41F2030188421ED8206A716820289E
:103F100021F0F84132D141F0804031E0E0690028E1
:103F2000306819D040F080003060FEF769FA05462D
:103F30003068C005E3D4FEF763FA401B02284FF057
:103F40000300F5D962E700BFF068216A20F07C50D9
:103F500040EA0160F06014E020F080003060FEF77D
:103F60004FFA05463068C0050BD5FEF749FA401BED
:103F700002284FF00300F5D948E700BF41EA80600E
:103F80007060207800073FD42078800656D42078CF
:103F9000400769D4656A9DB3306900F0380018287D
:103FA00040F0A880012DB16A306B43D001F00302CC
:103FB000A36A9A423ED1C1F30511E26A914239D116
:103FC0000146226B6FF35F21013A914232D1C0F377
:103FD0004622616B01398A422CD1C0F30642A16BA3
:103FE00001398A4226D1C0F30660E16B013988426B
:103FF00020D1706BA16CC0F3CC00814240F03481C1
:10400000002001B0F0BD00BF60690028706F41D092
:1040100040F001007067FEF7F3F90546706F800706
:10402000B2D4FEF7EDF9401B0228F7D9032001B006
:10403000F0BD00BF012001B0F0BD00BFA0690028A5
:10404000306845D040F480503060FEF7D9F905461D
:10405000306880049BD4FEF7D3F9401B0228F7D9BF
:10406000032001B0F0BD00BFD6F8000440F480701A
:10407000C6F80004FEF7C4F9054600BFD6F80004F0
:10408000C00519D4FEF7BCF9401B6428F6D90320FB
:1040900001B0F0BD20F001007067FEF7B1F90546F0
:1040A000706F80077FF570AFFEF7AAF9401B0228FA
:1040B0004FF00300F4D9A9E6A168306F002943D07E
:1040C000052939D0012957D140F001005AE000BF3D
:1040D00020F480503060FEF793F905463068800484
:1040E0007FF555AFFEF78CF9401B02284FF0030017
:1040F000F4D98BE6306820F080703060FEF780F9EC
:10410000022D05460CD100BF306880014CD5FEF76A
:1041100077F9401B02284FF00300F5D976E600BF7F
:10412000306880017FF56CAFFEF76AF9401B02280A
:104130004FF00300F4D969E640F004003067306FB7
:1041400040F001001EE000BF20F001003067306F3A
:1041500020F004003067FEF753F9054641F2883736
:10416000306F80077FF516AFFEF74AF9401BB84263
:104170004FF00300F4D949E620F001003067306FBA
:1041800020F004003067FEF73BF9054641F288371E
:10419000306F80073FF5FEAEFEF732F9401BB842A4
:1041A0004FF00300F4D931E604F12807B06A40F279
:1041B000F33188438ECF0843591E40EA02104FF472
:1041C0007E426FF35F21B06202EB47204FF4FE02A4
:1041D00080B2E36B0844A16B02EB01414FF0FE4259
:1041E00001F4FE0102EB0362084402F0FE410844C0
:1041F0003063F06A4FF6F87120F00100F062706BE6
:10420000A26C884340EAC2007063F06A216C20F01F
:104210000C000843F062F06A616C20F00200084371
:10422000F062F06A40F48030F062F06A40F40030EE
:10423000F062F06A40F48020F062F06A40F0010021
:10424000F062306840F080703060FEF7D9F80446C4
:10425000306880013FF5D4AEFEF7D2F8001B02288B
:104260004FF00300F4D9D1E5F06A20F00100F062CC
:10427000FEF7C6F80546FEF7C3F8A842FBD0706B00
:104280004FF6F871A26C884340EAC2007063F06A8E
:1042900040F00100F062002001B0F0BD000000001D
:1042A000411E0020B0EB116F02D00120704700BF0B
:1042B0004EF21002F023CEF2000251604EF623516E
:1042C000CEF200010B700721906011607047000072
:1042D00090F88410012901D1022070472421C0F8F0
:1042E000881001680A680B6822F0005223F001036D
:1042F0000B60002343660A602021C0F8881080F814
:10430000843000207047000090F88420012A01D1F9
:104310000220704770B52422C0F888200268D0F8C7
:1043200064E0BEF1000FD2F800C0136823F001036F
:104330001360936823F0606341EA0301916019D030
:10434000916849F28C1E9368C0F6030E5B0F49F228
:104350009415C1F34266C0F603051EF80340E95CFC
:104360002301B3FBF1F11EF80630AE5D1B01B3FB78
:10437000F6F301E001210123A0F86A102021A0F842
:104380006830C2F800C0C0F88810002180F884109E
:10439000002070BD0000000090F88420012A01D1A7
:1043A0000220704770B52422C0F888200268D0F837
:1043B00064E0BEF1000FD2F800C0136823F00103DF
:1043C0001360936823F0604341EA0301916019D0C0
:1043D000916849F28C1E9368C0F6030E5B0F49F298
:1043E0009415C1F34266C0F603051EF80340E95C6C
:1043F0002301B3FBF1F11EF80630AE5D1B01B3FBE8
:10440000F6F301E001210123A0F86A102021A0F8B1
:104410006830C2F800C0C0F88810002180F884100D
:10442000002070BD0000000010B5D8B10446D0F8DF
:10443000880028B9002084F88400204600F028F87D
:104440002420C4F888002068A16A0268002922F0AC
:104450000101016002D0204601F00EFA204601F071
:1044600033FB08B1012010BD2068416821F4904160
:104470004160816821F02A018160016841F00101F9
:1044800001602046BDE8104001F066BA000000005F
:1044900070B5B8B0044602A840F600450830B8210F
:1044A00000263796C5F600053696CDE93466339674
:1044B000FCF78CF92068A84202D038B070BD00BF6C
:1044C0000420029002A80396FEF766FC08B1FDF7EF
:1044D0000BFB44F2E040C5F60200416941F00801DF
:1044E0004161416901F0080101910199016841F0C0
:1044F00001010160006833A900F0010001900198FA
:104500004FF4C0603390022034900020CDE9350094
:104510000320379005F5FA30FDF786FE38B070BD00
:104520002DE9F04381B00446D0F88800202807D157
:104530000120002918BF002A06D101B0BDE8F08390
:10454000022001B0BDE8F0831D460E460020C4F8ED
:1045500090002120C4F888001746FDF751FFA4F809
:1045600054708146A4F85670A168B1F5805F02D1FD
:104570002069002866D037460020B4F8561000297C
:10458000216867D06A1C28D0002D53D0804600BF18
:10459000C86900060AD4FDF733FFA0EB0900A84262
:1045A00000F2848021680868F2E700BF17B117F8AD
:1045B000010B04E038F8020B00276FF35F208862DC
:1045C000B4F856000138A4F85600B4F85600002894
:1045D000DED13FE0CA69120609D4CA69120606D4C0
:1045E000CA6912065CBFCA695FEA0262F2D51FB1EE
:1045F00017F8012B05E000BF30F8022B00276FF3FE
:104600005F228A62B4F85620013AA4F85620B4F822
:104610005620002AE1D11DE030F8022B00276FF36D
:104620005F228A62B4F85620013AA4F85620B4F802
:1046300056207AB1CA69120636D5002FECD017F889
:10464000012BEEE700273046B4F856100029216808
:104650007FF498AFC86940061ED42DB3681C14D1EE
:10466000C86940062AD4C869400627D4C8694006EC
:1046700024D4C86940064FF00000F1D50DE000BF1A
:1046800020680168C069400618D4FDF7B9FEA0EBA8
:104690000900A842F4D909E000202021C4F88810BC
:1046A00001B0BDE8F08300BFFDF7AAFE0320202182
:1046B000C4F8881001B0BDE8F08300BF00202021BD
:1046C000C4F8881001B0BDE8F083000000000000CD
:1046D000FEE700000000000080B586B000204FF427
:1046E0000041CDE90400CDE90110039040F60040FF
:1046F000C5F6020001A9FDF797FD44F2F44001223E
:10470000C5F60200016841F0020101600068012164
:1047100000F00200009000982820FEF799F9282068
:10472000FEF782F906B080BD2DE9F04F83B09246C6
:104730008B4604460DF0B0FE44F001000DF0D0FDB4
:104740000DF06AFF002859D040F6004541F20406FA
:10475000C5F602054FF4806105F58064002220460D
:10476000CEF20006FDF73CFE022101222846FDF7AD
:1047700037FE40F29070C2F200000178A1B94EF607
:10478000FC51CEF200010A68D2010BD40A6842F053
:1047900080720A600021316056F8041C41F001016A
:1047A00046F8041C0121017040F208013068C2F291
:1047B00000014DF68362C4F21B320968A1FB0212AC
:1047C000910C01EB81013268121A8A420BD23268D5
:1047D000121A8A423EBF3268121A8A4203D23268E3
:1047E000121A8A42EFD34FF480610122204601253C
:1047F000FDF7F6FD284603B0BDE8F08FBAF1000FD3
:104800004FF00005F6D041F2040640F6004740F2B2
:1048100090794DF68368CEF20006C5F60207C2F223
:104820000009C4F21B380DE04FF4806101222846D4
:10483000FDF7D6FDAAF1010A0BF1010B5FEA0A4070
:1048400000F06082CDE901BA4FF0000B002405E0D2
:10485000BBF1070F0BF1010B80F08E8002210122CA
:104860003846FDF7BDFD99F80000C8B94EF6FC507A
:10487000CEF200000068C0010FD44EF6FC51CEF21B
:104880000001086840F0807008600020306056F831
:10489000040C40F0010046F8040C012089F80000E7
:1048A00040F208013068C2F200014FEA440A096888
:1048B000A1FB0812910C01EB81013268121A8A42A5
:1048C0000CD23268121A8A423EBF3268121A8A42E9
:1048D00004D23268121A8A42EFD300BF07F580650E
:1048E0004FF480612846FDF773FD04460221002243
:1048F0003846FDF775FD99F80000C8B94EF6FC5032
:10490000CEF200000068C0010FD44EF6FC51CEF28A
:104910000001086840F0807008600020306056F8A0
:10492000040C40F0010046F8040C012089F8000056
:1049300040F208013068C2F200010968A1FB0812C8
:10494000611EB1FA81F1920C49094AEA010402EBB5
:1049500082013268121A8A42BFF47AAF3268121AA0
:104960008A423EBF3268121A8A42BFF471AF32687F
:10497000121A8A42EDD36BE7DDF808A0DDF804B027
:104980001FFA8AF04FF4806101288BF8004040F054
:10499000FF8001222846FDF723FD99F80000C8B9E1
:1049A0004EF6FC50CEF200000068C0010FD44EF667
:1049B000FC51CEF20001086840F0807008600020D1
:1049C000306056F8040C40F0010046F8040C012059
:1049D00089F8000040F208013068C2F2000109685D
:1049E000A1FB0812910C01EB81013268121A8A4274
:1049F0000CD23268121A8A423EBF3268121A8A42B8
:104A000004D23268121A8A42EFD300BF0221012277
:104A10003846FDF7E5FC99F80000C8B94EF6FC50A1
:104A2000CEF200000068C0010FD44EF6FC51CEF269
:104A30000001086840F0807008600020306056F87F
:104A4000040C40F0010046F8040C012089F8000035
:104A500040F208013068C2F200010968A1FB0812A7
:104A6000910C01EB81013268121A8A420CD2326831
:104A7000121A8A423EBF3268121A8A4204D232683F
:104A8000121A8A42EFD300BF022100223846FDF7F6
:104A9000A7FC99F80000C8B94EF6FC50CEF2000011
:104AA0000068C0010FD44EF6FC51CEF20001086838
:104AB00040F0807008600020306056F8040C40F030
:104AC000010046F8040C012089F8000040F20801BA
:104AD0003068C2F200010968A1FB0812910C01EBD9
:104AE00081013268121A8A420CD23268121A8A4242
:104AF0003EBF3268121A8A4204D23268121A8A42BF
:104B0000EFD300BF4FF4806100222846FDF768FC18
:104B1000022101223846FDF763FC99F80000C8B96C
:104B20004EF6FC50CEF200000068C0010FD44EF6E5
:104B3000FC51CEF20001086840F08070086000204F
:104B4000306056F8040C40F0010046F8040C0120D7
:104B500089F8000040F208013068C2F200010968DB
:104B6000A1FB0812910C01EB81013268121A8A42F2
:104B7000BFF45AAE3268121A8A423EBF3268121A25
:104B80008A42BFF451AE3268121A8A42EDD34BE624
:104B900000222846FDF724FC99F80000C8B94EF61B
:104BA000FC50CEF200000068C0010FD44EF6FC515C
:104BB000CEF20001086840F080700860002030608C
:104BC00056F8040C40F0010046F8040C012089F866
:104BD000000040F208013068C2F200010968A1FB40
:104BE0000812910C01EB81013268121A8A420BD231
:104BF0003268121A8A423EBF3268121A8A4203D2BF
:104C00003268121A8A42EFD3022101223846FDF798
:104C1000E7FB99F80000C8B94EF6FC50CEF2000050
:104C20000068C0010FD44EF6FC51CEF200010868B6
:104C300040F0807008600020306056F8040C40F0AE
:104C4000010046F8040C012089F8000040F2080138
:104C50003068C2F200010968A1FB0812910C01EB57
:104C600081013268121A8A420CD23268121A8A42C0
:104C70003EBF3268121A8A4204D23268121A8A423D
:104C8000EFD300BF022100223846FDF7A9FB99F8B7
:104C90000000C8B94EF6FC50CEF200000068C0011A
:104CA0000FD44EF6FC51CEF20001086840F080703F
:104CB00008600020306056F8040C40F0010046F80F
:104CC000040C012089F8000040F208013068C2F2AB
:104CD00000010968A1FB0812910C01EB8101326807
:104CE000121A8A42BFF4A0AD3268121A8A423EBF3D
:104CF0003268121A8A42BFF497AD3268121A8A4299
:104D0000EDD391E50025284603B0BDE8F08F000003
:104D10002DE9F04786B044F2E040C5F60200416953
:104D200041F0020141614EF6FC514269CEF20001B0
:104D300002F002020192019A0A68D2010DD40A68B7
:104D400042F080720A6041F200010022CEF20001BE
:104D50004A600A6842F001020A6040F290714FF026
:104D60000108C2F200010027059740F6004481F8CF
:104D70000080C5F60204CDE90377CDE9017701682B
:104D800001AE41F00801016001684FF0020A01F034
:104D9000080100910099016841F01001016001686B
:104DA00001F0100100910099016841F001010160DA
:104DB000016801F0010100910099016841F00801CA
:104DC0000160006802A900F008000090009811201E
:104DD00081E8810120463146CDF804A0FDF724FA90
:104DE0004FF48060019004F580603146FDF71CFAB5
:104DF000A4F540658020CDE9010828463146FDF73D
:104E000013FA204631464FF40049CDF80490FDF7DF
:104E10000BFA01AE204631460597CDE90198CDE960
:104E200003A7FDF701FA4FF4004100222046FDF7E9
:104E3000D7FA802100222846FDF7D2FA0120FDF79B
:104E4000DFF9802101222846FDF7CAFA3720FDF755
:104E5000D7F920463146CDE901970397FDF7E4F9EC
:104E60002820FDF7C9FD06B0BDE8F087000000006E
:104E70002DE9F04F81B041F200081646C5F6020850
:104E80000F46044641F204054FF48061002240467B
:104E9000CEF20005FDF7A4FAA8F5806902210122EF
:104EA0004846FDF79DFA40F29072C2F20002107877
:104EB000A0B94EF6FC50CEF200000168C9010BD437
:104EC000016841F0807101600020286055F8040CF1
:104ED00040F0010045F8040C0120107040F2080178
:104EE0002868C2F200014DF68362C4F21B320968E1
:104EF000A1FB0212910C01EB81012A68121A8A426D
:104F00000BD22A68121A8A423EBF2A68121A8A42B3
:104F100003D22A68121A8A42EFD34FF48061012229
:104F20004046C246FDF75CFA4FF0000B40F2E7380E
:104F30000DF0B2FA20460DF0D3F90DF06DFB00280C
:104F40004CD0C3450BF1010BF2D34FF4806100222A
:104F50005046FDF745FA022101224846FDF740FA86
:104F600040F29072C2F200021078A0B94EF6FC50E6
:104F7000CEF200000168C9010BD4016841F08071D4
:104F800001600020286055F8040C40F0010045F84D
:104F9000040C0120107040F208012868C2F20001E0
:104FA0004DF68362C4F21B320968A1FB0212910C18
:104FB00001EB81012A68121A8A4280F0A8802A68CF
:104FC000121A8A423EBF2A68121A8A4280F09F80D3
:104FD0002A68121A8A42EDD399E000BF5EB100BF81
:104FE00038780DF07DF90DF017FB00284AD1013E0D
:104FF00001373006F4D14FF4806100225046FDF7AE
:10500000EFF9022101224846FDF7EAF940F29072D9
:10501000C2F200021078A0B94EF6FC50CEF20000A9
:105020000168C9010BD4016841F080710160002062
:10503000286055F8040C40F0010045F8040C0120EC
:10504000107040F208012868C2F200014DF6836238
:10505000C4F21B320968A1FB0212910C01EB810121
:105060002A68121A8A420BD22A68121A8A423EBF52
:105070002A68121A8A4203D22A68121A8A42EFD385
:10508000002445E04FF4806100225046FDF7A8F966
:10509000022101224846FDF7A3F940F29072C2F2C4
:1050A00000021078A0B94EF6FC50CEF20000016864
:1050B000C9010BD4016841F08071016000202860B3
:1050C00055F8040C40F0010045F8040C0120107064
:1050D00040F208012868C2F200014DF68362C4F272
:1050E0001B320968A1FB0212910C01EB81012A68B5
:1050F000121A8A420BD22A68121A8A423EBF2A68C2
:10510000121A8A4203D22A68121A8A42EFD3012461
:105110004FF4806101225046FDF762F9204601B04C
:10512000BDE8F08F0000000040F69400C2F20000DD
:10513000FDF71ABA00000000F0B500680027D1E9B9
:1051400000CE00EBC212C0F6FF77D1E90234C56889
:10515000D2F8886006F47046C2F88860C6683D40A0
:1051600005EB0E45C6F30B46664401363543C2F8DF
:105170008850C568D2F88C606FF3DF2506F470465E
:10518000C2F88C602C44C0686FF3DF2018440130F3
:1051900040EA0440C2F88C00D2F8940020F00700E6
:1051A000C2F894000869C2F8940091F832300728D8
:1051B00091F831404FEA03438D69D2F89C604FF07B
:1051C0000006C2F89C6043EA042391F8307043EA79
:1051D000056340F207743B44C2F89C30D2F8983023
:1051E00023F0FF03C2F898304B69C2F89830D2F828
:1051F000A03023EA0403C2F8A030D1E9073443EA1F
:105200000403C2F8A03002F18403D2F8AC40C2F823
:10521000AC604C6AC2F8AC4006D849F26C12C0F6D9
:10522000030252F8200000E00120DA6AAEEB0C071E
:1052300002F0E022DA62D1E90A12414378430730F2
:1052400040EA0140D862186B40F2FF71884318634E
:105250001A63186840F001001860F0BD00000000FB
:1052600080B540F2987041F20001C2F20000C5F230
:10527000002101604FF44031416002218160002132
:10528000C160FCF761FF002808BF80BDBDE8804019
:10529000FCF72ABC0000000081B044F2E040C5F6F3
:1052A0000200016841F080010160016801F08001A5
:1052B00000910099016841F004010160016801F06A
:1052C000040100910099016841F001010160016849
:1052D00001F0010100910099016841F002010160B3
:1052E000016801F0020100910099016841F010018C
:1052F0000160016801F0100100910099016841F01E
:1053000008010160006800F008000090009801B0FA
:10531000704700000000000080B540F6000040F635
:105320000041C2F20000C5F600010C2201604FF4FA
:10533000E13141600021C0E902110161C0E90521AC
:10534000C0E9081181624166FFF76EF808B1FCF709
:10535000CBFB40F600000021C2F20000FFF71CF872
:1053600008B1FCF7C1FB40F600000021C2F20000CA
:10537000FEF7CAFF08B1FCF7B7FB40F60000C2F227
:105380000000FEF7A5FF002808BF80BDBDE88040F3
:10539000FCF7AABB0000000010B58EB040F69400E8
:1053A00041F20001C2F2000000240D94C5F2000198
:1053B000C0E90014C0E90244C0E9044484612B211F
:1053C000C1610C21016240F20B2141624FF48E71E8
:1053D000816240F21321C1624FF4927101638486AD
:1053E00080F83640FDF728F908B1FCF77DFB022272
:1053F0000592FF224FF4F070CDE906244FF480624D
:1054000008920522099240F200024FF48871CDE91A
:105410000204C2F200420491CDE90A2040F6940051
:105420000C91C2F2000001A900220194ADF83440B1
:105430008DF83640FDF758F808B1FCF755FB0EB073
:1054400010BD000000000000FEE7000000000000AA
:10545000FEE70000000000007047000000000000B0
:10546000F0B581B044F22C47C5F6020757F8042C7A
:1054700002F00302032A03D1012001B0F0BD00BFF6
:10548000054657F82C0C0C4620F0806047F82C0C91
:10549000FCF7B6FF064600BF57F82C0C000105D5F7
:1054A000FCF7AEFF801B0228F6D964E057F8040C25
:1054B000EE6895E80E0020F47C30012C40EA0130C3
:1054C000A2F101016FF35F214FF47E4202EB432210
:1054D00047F8040C92B24FF0FE4302EB01004FF488
:1054E000FE012A6901EB064101F4FE0103EB0262B1
:1054F000084402F0FE410844F8603868696920F009
:10550000C00040EA010038603868A96920F0200036
:1055100040EA0100386038684FF6F87120F010005A
:1055200038603869EA6920EA01004FF4001140EA66
:10553000C2003861386808BF4FF4801140F0100095
:10554000002C386008BF4FF40021386808433860E9
:1055500057F82C0C40F0806047F82C0CFCF750FFFB
:10556000044600BF57F82C0C000107D4FCF748FF95
:10557000001B0328F6D3032001B0F0BD002001B0CA
:10558000F0BD000000000000F0B581B044F22C47EF
:10559000C5F6020757F8042C02F00302032A03D1D0
:1055A000012001B0F0BD00BF054657F82C0C0C4699
:1055B00020F0805047F82C0CFCF722FF064600BF75
:1055C00057F82C0C800005D5FCF71AFF801B022829
:1055D000F6D964E057F8040CEE6895E80E0020F068
:1055E0007C70012C40EA0150A2F101016FF35F21B0
:1055F0004FF47E4202EB432247F8040C92B24FF084
:10560000FE4302EB01004FF4FE012A6901EB064163
:1056100001F4FE0103EB0262084402F0FE4108447B
:1056200078613868696920F4406040EA01003860B8
:105630003868A96920F4007040EA010038603868D1
:105640004FF6F87120F480703860B869EA6920EA92
:1056500001004FF0807140EAC200B861386808BFAD
:105660004FF4000140F48070002C386008BF4FF404
:10567000800138680843386057F82C0C40F080509F
:1056800047F82C0CFCF7BCFE044600BF57F82C0C66
:10569000800007D4FCF7B4FE001B0328F6D30320D8
:1056A00001B0F0BD002001B0F0BD0000000000001E
:1056B000704700000000000080B501202BF0F0FBD7
:1056C000BDE88040FCF7A4BEB0B59CB044F6180419
:1056D00009A84C21C5F60204FBF778F80220002542
:1056E000CDE90755CDE90555CDE90355CDE901557E
:1056F000FDF7EEF940F22C400095C5F60000016878
:1057000021F001010160006800F0010000902068B4
:1057100040F440402060206800F440400090009831
:105720002068800409D4206880045CBF20685FEA98
:10573000804002D420688004F2D5012009904FF403
:1057400080300A9002200521CDE9120014918121B8
:10575000CDE91510CDE9170009A8082419940025F2
:10576000CDE91A55FEF7E4FA20B1EFF3108072B6D6
:10577000FEE700BF3F20019003204FF48061CDE998
:10578000020540200494CDE90500CDE9071001A8E9
:105790000221FEF789F828B1EFF3108072B600BF3E
:1057A000FEE700BF1CB0B0BD4EF6885042F2000CC0
:1057B000CEF20000C5F2002C016841F470010160D6
:1057C000DCF8000000F00F00062806D8DCF8000026
:1057D000072161F30300CCF8000044F200404EF6CC
:1057E0007F52C5F60200CEF6F622016841F00101B3
:1057F00001600021016103681A400260DCF80020AA
:10580000120706D5DCF80020072363F30302CCF867
:10581000002040F200228161C161C0F202220162D7
:1058200082620022C0F2FF12C26240F28022C0F205
:105830000112026341638263C163026441640268CE
:1058400022F480220260016641F20000C5F60040A9
:105850000068B1EB507F05D148F208100121C5F274
:105860000010016044F2000043F2D201C5F20020B2
:105870000160704700000000816A0A070CD4CA0763
:1058800015D18A071ED44A0727D4CA0630D48A06FF
:1058900039D44A0642D454E00268D0F838C053687C
:1058A00023F4004343EA0C035360CA07E9D00268BB
:1058B000D0F82CC0536823F4003343EA0C03536040
:1058C0008A07E0D50268D0F830C0536823F48033EB
:1058D00043EA0C0353604A07D7D50268D0F834C0B6
:1058E000536823F4802343EA0C035360CA06CED5E1
:1058F0000268D0F83CC0936823F4805343EA0C0359
:1059000093608A06C5D50268D0F840C0936823F436
:10591000005343EA0C0393604A0612D50268D0F89C
:1059200044C0BCF5801F536823F4801343EA0C0382
:10593000536006D1536823F4C00C836C43EA0C0314
:105940005360090658BF70470168C06C4A6822F46A
:105950000022104348607047B0B582B00446002072
:10596000C4F89000FCF74CFD216805460A68120750
:1059700037D54FF4001100226FF07E400090204692
:105980002B4600F0E5FA58B3206850E8000F216874
:1059900020F0800041E80002002A1FBF206850E884
:1059A000000F216820F080001CBF41E80002002A9F
:1059B00012D0206850E8000F216820F0800041E8F4
:1059C00000024AB1206850E8000F216820F08000F2
:1059D00041E80002002AD7D10320202188226CE070
:1059E0002168086840075FD54FF4800100226FF0FE
:1059F0007E40009020462B4600F0AAFA002853D0A3
:105A0000206850E8000F216820F4907041E80002FF
:105A1000F2B1206850E8000F216820F4907041E84E
:105A20000002002A1FBF206850E8000F216820F400
:105A300090701CBF41E80002002A09D0206850E89D
:105A4000000F216820F4907041E80002002AD7D1AD
:105A5000206850E8020F216820F0010041E80202AE
:105A6000002A1FBF206850E8020F216820F00100C3
:105A70001CBF41E80202002A12D0206850E8020F41
:105A8000216820F0010041E802024AB1206850E894
:105A9000020F216820F0010041E80202002AD7D15C
:105AA000032020218C2208E02020C4F88800C4F8BC
:105AB0008C00002170220020E166A150002184F8B2
:105AC000841002B0B0BD0000F0B583B00446006899
:105AD00046F6F31640F6004E22696569D4E90213D2
